:100000000C942A000C9447000C9447000C94470071
:100010000C9447000C9447000C9447000C94470044
:100020000C9447000C9447000C9447000C94470034
:100030000C9447000C9447000C9447000C94470024
:100040000C9447000C9447000C9447000C94470014
:100050000C94470011241FBECFE5D8E0DEBFCDBF12
:1000600010E0A0E6B0E0E2ECF0E002C005900D92F6
:10007000A036B107D9F710E0A0E6B0E001C01D92AC
:10008000A036B107E1F70E9453000C945F000C9476
:10009000000020E23EE404C0F9013197F1F7019736
:1000A0000097D1F70895B89AC09884E690E00E942E
:1000B0004900C09A84E893E00E944900F5CFF89483
:0200C000FFCF70
:00000001FF
